:10000000ECEF00F00C48656C6C6F000072656720C7
:10001000253375203D202533750A0D000C4572727D
:100020006F00010EEA6E070EE96EEF500EE0040E4F
:10003000016E006A002EFED7012EFBD7DC0E006E8B
:10004000002EFED70000EF2EF2D712000900F55265
:100050000DE0F6CF06F1F7CF07F1F5509EA8FED7D9
:10006000AD6E06C1F6FF07C1F7FFF0D71200C69EBE
:100070009E960BC1C9FF020EC6BE05D09EA6FED736
:10008000000EC5BC010E016E12000101076BC58098
:10009000C5B0FED706C10BF10001E9DF01C007F1D1
:1000A000C584C5B4FED70101075302E0000E01D09C
:1000B000010E016E000120EF01F0C69CC586C5B699
:1000C000FED700B0C59A00A0C58AC588C5B8FED7BE
:1000D000C9CF01F077EF00F001010A6BC580C5B010
:1000E000FED708C10BF10001C2DF006AE6D701C0EC
:1000F0000AF1C584C5B4FED701010AC101F00001AF
:100100003AEF01F00900F6CF08F1F7CF09F1F55009
:100110009EA8FED7AD6E08C1F6FF09C1F7FF010129
:10012000072F01D002D00001EDD70001120001011C
:100130000A51016A095D03E209C100F00CD0006AAE
:10014000080E0B6F093700360A51005CD8B0006EFC
:1001500001360B2FF7D700011200015007C109F13A
:10016000640E01010A6F0001E2DF00C007F10150D7
:10017000300E08E1010108A30ED008B70CD008B971
:10018000200E04D00101089708990881012601502A
:100190009EA8FED7AD6E07C109F10A0E0A6F0001D5
:1001A000C6DF00C007F10150300E08E1010108B7B9
:1001B0000BD008A109D008B9200E0001012601507A
:1001C0009EA8FED7AD6E0101300E072707519EA8ED
:1001D000FED7AD6E00011200F86AD09E610EAF6EC0
:1001E000A60EAC6E900EAB6E948694887F0EC86E91
:1001F000280EC66EC78EC79CC180C182C184C196BD
:10020000056A066A0C0E0101066FFA0E076F0001FF
:1002100008DF0101062FF9D7040EF66E000EF76E07
:10022000000114DF0C0E0101066FFA0E076F0001CA
:10023000F8DE0101062FF9D7400E066F000125D721
:1002400001C006F006525BE0066A056A053C01D073
:100250001ED0036A0550070F016E000E032201C075
:1002600006F1010103C007F1400E086F05C009F156
:10027000000132D707C1EAFF06C1E9FF01C0EFFF65
:100280000A0E0101076F0001CCDE052ADFD7056ADF
:10029000053C01D033D0036A0550070FE96E000E0C
:1002A0000320EA6EEFCF06F10C0EF66E000EF76E2D
:1002B000040E0101076F000125DF05C007F1130ED1
:1002C0000101086F000149DF130EF66E000EF76E94
:1002D000030E0101076F000115DF06C107F1130EC0
:1002E0000101086F000139DF0A0E9EA8FED7AD6E2E
:1002F0000D0E9EA8FED7AD6E052ACAD705D01C0EDE
:10030000F66E000EF76EA2DE040E0101066FFA0E05
:10031000076F000186DE0101062FF9D78DD7000E89
:04032000016E030067
:020000040030CA
:0E00000000220E0E000181000FC00FE00F4025
:00000001FF
;PIC18F252
;CRC=1969  CREATED="10-fev-15 11:04"
