:100000007BEF01F00A0D456E636F6E747261646F71
:10001000732025750A0D00006469737020307825FF
:1000200078207265672030782578203D203078254B
:10003000780D0A00030EEA6E100EE96EEF500EE026
:10004000040E016E006A002EFED7012EFBD7DC0ED7
:10005000006E002EFED70000EF2EF2D71200C69ED3
:100060009E9615C3C9FF020EC6BE05D09EA6FED73A
:10007000000EC5BC010E016E12000301116BC5809C
:10008000C5B0FED710C315F30001E9DF01C011F3BD
:10009000C584C5B4FED70301115302E0000E01D0A0
:1000A000010E016E0001120003010A6B0B6B0C6B59
:1000B000020E0A6F0A51FD0819E30A0E106F0001C3
:1000C000B9DF0AC310F3D9DF01520CE003010C5170
:1000D0000C2B036A0825E96E09510320EA6E0AC356
:1000E000EFFF0001020E03010A27E4D70CC301F061
:1000F000000196EF01F00900F6CF0BF3F7CF0CF3F8
:10010000F5509EA8FED7AD6E0BC3F6FF0CC3F7FFEC
:1001100003010A2F01D002D00001EDD70001120027
:1001200003010B51016A0A5D03E20AC300F00CD01F
:10013000006A080E0C6F0A3700360B51005CD8B00D
:10014000006E01360C2FF7D700011200015008C3D2
:100150000AF3640E03010B6F0001E2DF00C008F335
:100160000150300E08E1030109A30ED009B70CD0ED
:1001700009B9200E04D003010997099909810126C4
:1001800001509EA8FED7AD6E08C30AF30A0E0B6F8E
:100190000001C6DF00C008F30150300E08E1030182
:1001A00009B70BD009A109D009B9200E0001012619
:1001B00001509EA8FED7AD6E0301300E08270851EE
:1001C0009EA8FED7AD6E0001A8EF01F00301095112
:1001D0000B03F3CF01F0F4CF00F00C03F350002633
:1001E0000A510B03F3500020026E00011200C69C5E
:1001F000C586C5B6FED700B0C59A00A0C58AC58819
:10020000C5B8FED7C9CF01F011EF01F00301146B9F
:10021000C580C5B0FED712C315F3000120DF006A08
:10022000E6D701C014F3C584C5B4FED7030114C3D7
:1002300001F000013FEF01F003010E6B0F6B0E6B3D
:100240000E51010830E30A0E106F0001F3DE0BC3FC
:1002500010F313DF01C00FF303010F5318E0036A1B
:100260000E510C25016E0D51032201C010F303C085
:1002700011F30BC312F30EC313F30001C7D711C35D
:10028000EAFF10C3E9FF01C0EFFF0AD00301036AD0
:100290000E510C25E96E0D510320EA6EEF68000146
:1002A00003010E2BCDD70EC301F00001D9EF01F0F1
:1002B00003010BBF10D00F0E006E0A3900160A0E94
:1002C000005C03E2300E002602D00B5100260050E5
:1002D0009EA8FED7AD6E0F0E0A170A0E0A5D02E247
:1002E000300E02D00B9F0B510A270A519EA8FED751
:1002F000AD6E00011200F86AD09E610EAF6EA60EC0
:10030000AC6E900EAB6E94869488250EC86E280E47
:10031000C66EC78EC79CC180C182C184C1960301CD
:10032000056B096B050E086F0001BED601C005F311
:10033000040EF66E000EF76E0E0E03010A6F00013A
:10034000DADE05C308F31B0E0301096F0001FED6B8
:100350000A0E9EA8FED7AD6E0D0E9EA8FED7AD6EFE
:100360000301066B0551065DD8B085D0036A0651BE
:10037000050FE96E000E0320EA6EEFCF08F30A6B5B
:1003800006C309F30C6B0B69000120DF02C003F008
:100390000150080F016E000E032201C009F303C0D3
:1003A0000AF308C30BF303C00DF301C00CF3000103
:1003B00043D70301076B073D01D05BD0036A0651A9
:1003C000050FE96E000E0320EA6EEFCF08F30A6B0B
:1003D00006C309F30C6B0B690001F8DE01C009F3D9
:1003E000030107510124016E000E0220036E01502B
:1003F000080FE96E000E0320EA6EEFCF09F3180E26
:10040000F66E000EF76E070E0A6F000174DE08C369
:100410000AF3570E03010B6F00014ADF210EF66E3F
:10042000000EF76E070E03010A6F000164DE07C3BA
:100430000AF3570E03010B6F00013ADF2A0EF66E26
:10044000000EF76E050E03010A6F000154DE09C3AA
:100450000AF3570E03010B6F00012ADF0D0E9EA851
:10046000FED7AD6E0A0E9EA8FED7AD6E0301072B18
:0C047000A2D7062B77D7000E016E030008
:020000040030CA
:0E00000000220E0E000181000FC00FE00F4025
:00000001FF
;PIC18F252
;CRC=E8FA  CREATED="13-fev-15 10:09"
