:10000000D4EF01F00A0D4D7569746F732064697344
:10001000706F6973697469766F732025640A0D00C7
:100020000A0D456E636F6E747261646F732025757F
:100030000A0D44697370090020203078257800008B
:10004000726567203078257820200000050EEA6E62
:100050000F0EE96EEF500EE0040E016E006A002EE6
:10006000FED7012EFBD7DC0E006E002EFED700005F
:10007000EF2EF2D71200C69E9E9614C5C9FF020E3F
:10008000C6BE05D09EA6FED7000EC5BC010E016EF1
:10009000120005010E6BC580C5B0FED70DC514F565
:1000A0000001E9DF01C00EF5C584C5B4FED7050126
:1000B0000E5302E0000E01D0010E016E000170EF40
:1000C00000F005010A6B0B6B0C6B0A6B0A51FD0803
:1000D00019E30A0E0F6F0001B9DF0AC50DF5D9D774
:1000E00001520CE005010C510C2B036A0825E96E46
:1000F00009510320EA6E0AC5EFFF0001020E050157
:100100000A27E4D70CC501F00001EFEF01F0090068
:10011000F6CF0AF5F7CF0BF5F5509EA8FED7AD6EDA
:100120000AC5F6FF0BC5F7FF0501092F01D002D064
:100130000001EDD70001120005010F51016A0E5DAB
:1001400003E20EC500F00CD0006A080E106F0E37E7
:1001500000360F51005CD8B0006E0136102FF7D773
:1001600000011200200E050109A9300E0A6F08C512
:1001700000F008AF08D0001E002A00C008F52D0EC0
:100180000A6F098F0981015008C50EF5640E0F6FC3
:100190000001D2DF00C008F5300E012405010B6F0D
:1001A00008C50EF50A0E0F6F0001C6DF300E0024E1
:1001B00005010D6F300E01240C6F0AC500F0300EE2
:1001C0000B5D04E0098309BF098512D00AC50BF550
:1001D000200E0A6F300E0C5D04E0098109BF09830F
:1001E00007D0D8A4098104E10BC50CF5200E0B6FD4
:1001F00009B505D009B307D009B109D00CD00A510F
:100200009EA8FED7AD6E0B519EA8FED7AD6E0C51C9
:100210009EA8FED7AD6E0D519EA8FED7AD6E000113
:1002200004EF02F0015008C50EF5640E05010F6FD2
:10023000000182DF00C008F50150300E08E1050121
:1002400009A30ED009B70CD009B9200E04D00501BE
:10025000099709990981012601509EA8FED7AD6E24
:1002600008C50EF50A0E0F6F000166DF00C008F525
:100270000150300E08E1050109B70BD009A109D0E2
:1002800009B9200E0001012601509EA8FED7AD6ECF
:100290000501300E082708519EA8FED7AD6E00015B
:1002A0001FEF02F0050109510B03F3CF01F0F4CF6A
:1002B00000F00C03F35000260A510B03F35000200A
:1002C000026E00011200C69CC586C5B6FED700B0FE
:1002D000C59A00A0C58AC588C5B8FED7C9CF01F0A8
:1002E0007DEF01F00501136BC580C5B0FED711C5C8
:1002F00014F50001C0DE006AE6D701C013F5C5841D
:10030000C5B4FED7050113C501F00001A3EF01F04C
:1003100005010E6B0E6B0E5101081EE30A0E0F6FE6
:10032000000194DE036A05010E510C25016E0D518A
:10033000032201C00FF503C010F50BC511F50EC562
:1003400012F50001CFD710C5EAFF0FC5E9FF01C0C4
:10035000EFFF05010E2BDFD70EC501F0000150EFB6
:1003600002F005010ABF10D00F0E006E0939001609
:100370000A0E005C03E2300E002602D00A5100266D
:1003800000509EA8FED7AD6E0F0E09170A0E095D2C
:1003900002E2300E02D00A9F0A51092709519EA895
:1003A000FED7AD6E00011200F86AD09E610EAF6EEE
:1003B000A60EAC6E900EAB6E94869488250EC86E19
:1003C000280EC66EC78EC79CC180C182C184C196EB
:1003D0000501056B096B050E086F000172D601C09F
:1003E00005F50501055105081BE2040EF66E000E29
:1003F000F76E170E096F00018ADE05C508F5180EA5
:100400000501096F0001AED60A0E9EA8FED7AD6E9B
:100410000D0E9EA8FED7AD6E010E016EC5D0050172
:10042000200EF66E000EF76E0E0E096F00016FDEE5
:1004300005C508F51B0E0501096F0001F3D6300E46
:10044000F66E000EF76E070E0501096F00015FDE04
:100450000501066B0551065D3FE2036A0651050F73
:10046000E96E000E0320EA6EEFCF08F50A6B06C5B1
:1004700009F50C6B0B69000115DF02C003F0015098
:100480000A0F016E000E032201C009F503C00AF530
:1004900008C50BF503C00DF501C00CF5000138D7F8
:1004A000036A05010651050FE96E000E0320EA6E8E
:1004B000EFCF08F5380EF66E000EF76E040E096FDA
:1004C000000125DE08C509F5570E05010A6F000178
:1004D00048DF0501062BBED70A0E9EA8FED7AD6EDB
:1004E0000D0E9EA8FED7AD6E066B063D01D059D00D
:1004F000400EF66E000EF76E060E096F000107DE65
:1005000006C509F5570E05010A6F00012ADF200E06
:100510009EA8FED7AD6E200E9EA8FED7AD6E05013B
:10052000076B0551075D33E20A6B06C509F50C6BD5
:100530000B690001B7DE02C009F501C008F505012D
:1005400007510124016E000E0220036E01500A0FB4
:10055000E96E000E0320EA6EEFCF08F5300E9EA87C
:10056000FED7AD6E780E9EA8FED7AD6E08C509F514
:10057000570E0A6F0001F5DE200E9EA8FED7AD6E65
:10058000200E9EA8FED7AD6E0501072BCAD70A0E16
:100590009EA8FED7AD6E0D0E9EA8FED7AD6E062BA3
:0A05A000A4D7000E016E0001030055
:020000040030CA
:0E00000000220E0E000181000FC00FE00F4025
:00000001FF
;PIC18F252
;CRC=3FB0  CREATED="13-fev-15 11:17"
