:10000000ADEF00F00A0D4D7569746F73206469736C
:10001000706F6973697469766F732025640A0D00C7
:100020000A0D456E636F6E747261646F732025757F
:100030000A0D44697370090020203078257800008B
:10004000726567203078257820200000C69E9E9635
:100050000BC0C9FF020EC6BE05D09EA6FED7000E7D
:10006000C5BC010E016E1200C69CC586C5B6FED782
:1000700000B0C59A00A0C58AC588C5B8FED7C9CF4B
:1000800001F056EF00F0C580C5B0FED707C00BF0F9
:10009000DDDF08C00BF0DADFC582C5B2FED7010E86
:1000A00007240A6E0B6ED2DF006ADED701C009F0AA
:1000B000C584C5B4FED709C001F0120009BE10D036
:1000C0000F0E006E083800160A0E005C03E2300EB8
:1000D000002602D00950002600509EA8FED7AD6E23
:1000E0000F0E08160A0E085C02E2300E02D0099EBE
:1000F0000950082608509EA8FED7AD6E12000A6A65
:10010000C580C5B0FED707C00BF0A0DF01C00AF064
:1001100008C00BF09BDF09C00BF098DFC584C5B4A5
:10012000FED70A5202E0000E01D0010E016E12004D
:10013000EA6A080EE96EEF500EE0040E016E006AE6
:10014000002EFED7012EFBD7DC0E006E002EFED750
:100150000000EF2EF2D732EF01F0F86AD09E610E68
:10016000AF6EA60EAC6E900EAB6E94869488250E84
:10017000C86E280EC66EC78EC79CC180C182C1845E
:10018000C196056A400E076E086A7DDF01C006F061
:10019000400E076E086A77DF01C007F0300E9EA898
:1001A000FED7AD6E780E9EA8FED7AD6E07C008F0E4
:1001B000570E096E83DF0A0E9EA8FED7AD6E0D0E98
:1001C0009EA8FED7AD6E063C05D0400E076E086AAD
:1001D000096A95DF400E076E086A55DF01C007F017
:1001E000300E9EA8FED7AD6E780E9EA8FED7AD6EDF
:1001F00007C008F0570E096E61DF0A0E9EA8FED7F1
:10020000AD6E0D0E9EA8FED7AD6E010E056E0550AB
:1002100008082DE0400E076E120E086E05C009F0AA
:100220006EDF400E076E120E086E2DDF01C007F064
:10023000300E9EA8FED7AD6E780E9EA8FED7AD6E8E
:1002400007C008F0570E096E39DF0A0E9EA8FED7C8
:10025000AD6E0D0E9EA8FED7AD6E040E076EFA0EA3
:10026000086E66D7072EFBD7D8900536D0D7CDD7E6
:06027000000E016E030008
:020000040030CA
:0E00000000220E0E000181000FC00FE00F4025
:00000001FF
;PIC18F252
;CRC=86E6  CREATED="13-fev-15 14:57"
