:10000000C7EF00F061636861646F20307825780A7B
:100010000D0056617363756C6861646F732025759C
:100020000A0D0000EA6A870EE96EEF500EE0040E3A
:10003000016E006A002EFED7012EFBD7DC0E006E8B
:10004000002EFED70000EF2EF2D7E4EF00F0C69EA0
:100050009E9689C0C9FF020EC6BE05D09EA6FED7D9
:10006000000EC5BC010E016E3DEF00F0886BC5802F
:10007000C5B0FED787C089F0EAD701C088F0C58433
:10008000C5B4FED7885302E0000E01D0010E016E08
:10009000E7EF00F00900F6CF89F0F7CF8AF0F550CE
:1000A0009EA8FED7AD6E89C0F6FF8AC0F7FF882FE5
:1000B000F1D7120088BF10D00F0E006E87390016DE
:1000C0000A0E005C03E2300E002602D088510026A2
:1000D00000509EA8FED7AD6E0F0E87170A0E875DE3
:1000E00002E2300E02D0889F8851872787519EA850
:1000F000FED7AD6EF5EF00F08B51016A8A5D03E229
:100100008AC000F00CD0006A080E8C6F8A37003667
:100110008B51005CD8B0006E01368C2FF7D71200DF
:10012000015088C08AF0640E8B6FE6DF00C088F053
:100130000150300E07E189A30DD089B70BD089B9E2
:10014000200E03D0899789998981012601509EA8A4
:10015000FED7AD6E88C08AF00A0E8B6FCDDF00C06F
:1001600088F00150300E06E189B709D089A107D087
:1001700089B9200E012601509EA8FED7AD6E300E23
:10018000882788519EA8FED7AD6E0FEF01F0F86A60
:10019000D09E610EAF6EA60EAC6E900EAB6E9486C6
:1001A00094887F0EC86E280EC66EC78EC79CC1800D
:1001B000C182C184C196056A066A056A0550FD08B8
:1001C0001FE30A0E876F2ED705C087F04FD7015265
:1001D00014E0040EF66E000EF76E090E886F5ADFFB
:1001E00005C087F0570E886F65D70A0E9EA8FED708
:1001F000AD6E0D0E9EA8FED7AD6E020E0526DED7A3
:10020000D8900530876F120EF66E000EF76E0C0E4A
:10021000886F40DF87C088F01B0E896F81D70A0E78
:100220009EA8FED7AD6E0D0E9EA8FED7AD6E000E39
:04023000016E030058
:020000040030CA
:0E00000000220E0E000181000FC00FE00F4025
:00000001FF
;PIC18F252
;CRC=B938  CREATED="10-fev-15 11:24"
